:100000000C94380D0C94600D0C94600D0C94600DE4
:100010000C94600D0C94600D0C94600D0C94600DAC
:100020000C94600D0C94600D0C944B150C94BA1547
:100030000C94600D0C94600D0C94600D0C94600D8C
:100040000C94600D0C94600D0C94600D0C94600D7C
:100050000C94600D0C94600D0C94600D0C940115C3
:100060000C94600D0C94600D0C94600D0C94600D5C
:100070000C94600D0C94600D0C94600D0C94600D4C
:100080000C94600D0C94600D0C94600D0C94600D3C
:100090000C94600D0C94600D0C94600D0C94600D2C
:1000A0000C94600D0C94600D0C94600D4040FFFFAB
:1000B000FFFFFFFFFFFF8000000000000001800045
:1000C000000000000001800000000000000180002E
:1000D000000000000001800000000000000180001E
:1000E000000000000001800000000000000180000E
:1000F00000000000000180000000000000018000FE
:1001000000000000000180000003C000000180002A
:100110000003E000000180000003E0000001800017
:100120000003E000000180000003E0000001800007
:100130000003E000000180000003E00000018000F7
:100140000003C000000180000003C0000001800027
:100150000003C000000180000003C0000001800017
:100160000FFFFFF0000180000FFFFFF00001800093
:100170000FFFFFF0000180000FFFFFF00001800083
:100180000003C000000180000003C00000018000E7
:100190000003C000000180000003C00000018000D7
:1001A0000003E000000180000003E0000001800087
:1001B0000007E000000180000007E000000180006F
:1001C0000007E000000180000007E000000180005F
:1001D0000007E000000180000007E000000180004F
:1001E0000003E000000180000003E0000001800047
:1001F0000003E000000180000003E0000001800037
:100200000003C000000180000003C0000001800066
:100210000003C000000180000003C0000001800056
:100220000003C000000180000001C0000001800048
:10023000000180000001800000000000000180003B
:1002400000000000000180000000000000018000AC
:10025000000000000001800000000000000180009C
:10026000000000000001800000000000000180008C
:10027000000000000001800000000000000180007C
:10028000000000000001800000000000000180006C
:10029000000000000001800000000000000180005C
:1002A000000000000001FFFFFFFFFFFFFFFF4040D5
:1002B000FFFFFFFFFFFFFFFF8000000000000001C5
:1002C000800000000000000180000000000000012C
:1002D000800000000000000180000000000000011C
:1002E000800000000000000180000000000000010C
:1002F00080000000000000018000000000000001FC
:1003000080000000000000018000000000000001EB
:1003100080000000000000018000000000000001DB
:1003200080000000000000018000000000000001CB
:1003300080000000000000018000000000000001BB
:1003400080000000000000018000000000000001AB
:10035000800000000000000180000000000000019B
:10036000800000000000000180000000000000018B
:10037000800000000000000180000000000000017B
:10038000800000000000000180000000000000016B
:10039000800000000000000180000000000000015B
:1003A000800000000000000180000000000000014B
:1003B000800000000000000180000000000000013B
:1003C000800000000000000180000000000000012B
:1003D000800000000000000180000000000000011B
:1003E000800000000000000180000000000000010B
:1003F00080000000000000018000000000000001FB
:10040000800000000000000180007801E00780010A
:100410008000FC03F00FC0018000FC03F00FC0015E
:100420008000FC03F00FC0018000FC03F00FC0014E
:100430008000FC03F00FC00180007801E00780011C
:1004400080000000000000018000000000000001AA
:10045000800000000000000180000000000000019A
:10046000800000000000000180000000000000018A
:10047000800000000000000180000000000000017A
:10048000800000000000000180000000000000016A
:10049000800000000000000180000000000000015A
:1004A0008000000000000001FFFFFFFFFFFFFFFFD3
:1004B0004040FFFFFFFFFFFFFFFF80000000000044
:1004C000000180000000000000018000000000002A
:1004D000000180000000000000018000000000001A
:1004E000000180000000000000018000000000000A
:1004F00000018000000000000001800000000000FA
:1005000000018000000000000001800000000000E9
:1005100000018000000000000001800000000000D9
:100520000001800000000000000180000003E000E6
:10053000000180000007F000000180000007F000CB
:10054000000180000007F000000180000007F000BB
:10055000000180000007F000000180000003E000BF
:100560000001800000000000000180000000000089
:100570000001800000000000000180000000000079
:100580000001800000000000000180000000000069
:100590000001800000000000000180001FFFFFFE3E
:1005A000000180003FFFFFFE000180003FFFFFFED3
:1005B000000180001FFFFFFC000180000000000020
:1005C0000001800000000000000180000000000029
:1005D0000001800000000000000180000000000019
:1005E0000001800000000000000180000003E00026
:1005F000000180000003F000000180000007F0000F
:10060000000180000007F000000180000007F000FA
:10061000000180000007F000000180000003F000EE
:10062000000180000001E0000001800000000000E7
:1006300000018000000000000001800000000000B8
:1006400000018000000000000001800000000000A8
:100650000001800000000000000180000000000098
:100660000001800000000000000180000000000088
:100670000001800000000000000180000000000078
:100680000001800000000000000180000000000068
:100690000001800000000000000180000000000058
:1006A00000018000000000000001FFFFFFFFFFFFCE
:1006B000FFFF4040FFFFFFFFFFFFFFFF8000000044
:1006C0000000000180000000000000018000000028
:1006D0000000000180000000000000018000000018
:1006E0000000000180000000000000018000000008
:1006F00000000001800000000000000180000000F8
:1007000000000001800000000000000180000001E6
:10071000E000000180000001E00000018000000115
:10072000E000000180000001E00000018000000105
:10073000E000000180000001E000000180000001F5
:10074000E000000180000001E000000180000001E5
:10075000E000000180000001E000000180000001D5
:10076000E000000180000001E000000180000FFFB8
:10077000FFFC000180000FFFFFFE000180000FFF63
:10078000FFFE000180000FFFFFFE0001800000015E
:10079000F000000180000001E00000018000000185
:1007A000E000000180000001E00000018000000185
:1007B000E000000180000001E00000018000000175
:1007C000E000000180000001E00000018000000165
:1007D000E000000180000001E00000018000000155
:1007E000E000000180000001E00000018000000046
:1007F00000000001800000000000000180000000F7
:1008000000000001800000000000000180000000E6
:100810000000000180000FFFFFFC000180000FFFBF
:10082000FFFC000180000FFFFFFC000180000FFFB4
:10083000FFFC0001800000000000000180000000BB
:1008400000000001800000000000000180000000A6
:100850000000000180000000000000018000000096
:100860000000000180000000000000018000000086
:100870000000000180000000000000018000000076
:100880000000000180000000000000018000000066
:100890000000000180000000000000018000000056
:1008A000000000018000000000000001FFFFFFFFCA
:1008B000FFFFFFFF4040FFFFFFFFFFFFFFFF800044
:1008C0000000000000018000000000000001800026
:1008D0000000000000018000000000000001800016
:1008E0000000000000018000000000000001800006
:1008F00000000000000180000000000000018000F6
:1009000000000000000180001F00003E0001800088
:100910001F80003E000180001F80007E00018000DB
:100920000FC0007C0001800007C000F800018000BB
:1009300007E001F80001800003E001F00001800001
:1009400003F003F00001800001F803E000018000E3
:1009500000F807C00001800000FC07C00001800013
:10096000007C0F8000018000007E0F80000180006D
:10097000003E1F0000018000001F1E0000018000DB
:10098000001F3E0000018000000FFC0000018000FD
:10099000000FFC00000180000007F800000180004B
:1009A0000003F000000180000003F000000180005F
:1009B0000003F000000180000003F000000180004F
:1009C00007FFFFF80001800007FFFFF8000180002B
:1009D00007FFFFF8000180000003F0000001800025
:1009E0000003F000000180000003F000000180001F
:1009F0000003F000000180000003F000000180000F
:100A000007FFFFF80001800007FFFFF800018000EA
:100A100007FFFFF80001800007FFFFF800018000DA
:100A20000003F000000180000003F00000018000DE
:100A30000003F000000180000003F00000018000CE
:100A40000001E000000180000000000000018000C3
:100A50000000000000018000000000000001800094
:100A60000000000000018000000000000001800084
:100A70000000000000018000000000000001800074
:100A80000000000000018000000000000001800064
:100A90000000000000018000000000000001800054
:100AA0000000000000018000000000000001FFFFC6
:100AB000FFFFFFFFFFFF4040FFFFFFFFFFFFFFFFC4
:100AC0008000000000000001800000000000000124
:100AD0008000000000000001800000000000000114
:100AE0008000000000000001800000000000000104
:100AF00080000000000000018000000000000001F4
:100B0000800000007F80000180000001FFE0000104
:100B100080000007FFF800018000000FFFFC0001CB
:100B20008000001FF1FC00018000001F803C0001DC
:100B30008000003F001C00018000003E0004000116
:100B40008000003E000000018000007E00000001E7
:100B50008000007C000000018000007C000000019B
:100B60008000007C000000018000007C000000018B
:100B70008000007C000000018000007C000000017B
:100B80008000007C000000018000007C000000016B
:100B900080000FFFFF80000180000FFFFF80000139
:100BA00080000FFFFF80000180000FFFFF80000129
:100BB0008000007C000000018000007C000000013B
:100BC0008000007C000000018000007C000000012B
:100BD0008000007C000000018000007C000000011B
:100BE0008000007C000000018000007C000000010B
:100BF0008000007C000000018000007C00000001FB
:100C00008000007C000000018000007C00000001EA
:100C10008000007C000000018000007C00000001DA
:100C2000800000FE0000000180000FFFFFFE0001B9
:100C300080000FFFFFFE000180000FFFFFFE00019C
:100C400080000FFFFFFC0001800000000000000199
:100C50008000000000000001800000000000000192
:100C60008000000000000001800000000000000182
:100C70008000000000000001800000000000000172
:100C80008000000000000001800000000000000162
:100C90008000000000000001800000000000000152
:100CA0008000000000000001800000000000000142
:100CB000FFFFFFFFFFFFFFFF4040FFFFFFFFFFFFC2
:100CC000FFFF800000000000000180000000000025
:100CD0000001800000000000000180000000000012
:100CE0000001800000000000000180000000000002
:100CF00000018000000000000001800000000000F2
:100D000000018000000000000001800000007F80E2
:100D1000000180000003FFF0000180000007FFFCDD
:100D200000018000001FFFFC00018000003FF1FC7B
:100D300000018000003F801C00018000007E000454
:100D40000001800000FC00000001800000FC0000A9
:100D50000001800001F800000001800001F800009F
:100D60000001800001F000000001800003F000009D
:100D70000001800003F00000000180003FFFFC0044
:100D8000000180007FFFFC00000180007FFFFC006D
:100D9000000180003FFFFC000001800003E0000034
:100DA0000001800003E000000001800003E000007B
:100DB0000001800003E000000001800003E000006B
:100DC0000001800003E00000000180003FFFFC0004
:100DD000000180007FFFFC00000180007FFFFC001D
:100DE000000180003FFFFC000001800003F00000D4
:100DF0000001800003F000000001800003F000000B
:100E00000001800001F000000001800001F80000F6
:100E10000001800001F800000001800000FC0006D5
:100E20000001800000FE000E00018000007F803E77
:100E300000018000003FF1FE00018000001FFFFC68
:100E400000018000000FFFF8000180000003FFF0A8
:100E50000001800000007F80000180000000000091
:100E60000001800000000000000180000000000080
:100E70000001800000000000000180000000000070
:100E80000001800000000000000180000000000060
:100E90000001800000000000000180000000000050
:100EA0000001800000000000000180000000000040
:100EB0000001FFFFFFFFFFFFFFFF4040FFFFFFFFBD
:100EC000FFFFFFFF80000000000000018000000025
:100ED0000000000180000000000000018000000010
:100EE0000000000180000000000000018000000000
:100EF00000000001800000000000000180000000F0
:100F00000000000180000000000000018000001FC0
:100F1000FC000001800001FFFFC00001800007FF0E
:100F2000FFF0000180001FF81FFC000180003F80DF
:100F300000FE000180007E00003F00018000F800FC
:100F4000001F80018001F0000007C0018003E00065
:100F50000003C0018003C00FFC03E0018007C03F15
:100F6000FE01E0018007807FFF01F001800780FF24
:100F70003F80F001800F01F80780F001800F01F041
:100F800001807801800F03E000007801800F03E00A
:100F900000007801801E03C000007801801E03C09D
:100FA00000007801801E07C000007801801E07C085
:100FB00000007801801E07C000007801801E07C075
:100FC00000007801801E07C000007801801E07C065
:100FD00000007801801E07C000007801801E07C055
:100FE00000007801801E03C000007801801E03E02D
:100FF00000007801800F03E001807801800F01F08C
:101000000380F001800F01F80780F001800F80FF5E
:101010003F80F0018007807FFF01E0018007803F73
:10102000FE01E0018007C01FF803E0018003E0003B
:101030000007C0018001F000000F80018001F8006E
:10104000001F80018000FC00003F000180007F80C5
:1010500001FE000180001FFC1FF8000180000FFF4F
:10106000FFF00001800001FFFF8000018000001FF1
:10107000F800000180000000000000018000000076
:10108000000000018000000000000001800000005E
:10109000000000018000000000000001800000004E
:1010A000000000018000000000000001800000003E
:1010B00000000001FFFFFFFFFFFFFFFF4040FFFFB9
:1010C000FFFFFFFFFFFF8000000000000001800025
:1010D000000000000001800000000000000180000E
:1010E00000000000000180000000000000018000FE
:1010F00000000000000180000000000000018000EE
:1011000000000000000180000000000000018000DD
:1011100000000003C001800000000007C001800043
:101120003F00000F80018001FFC0000F000180031D
:10113000FFE0001E00018003C3E0003E00018003C9
:1011400001F0003C0001800001F000780001800007
:1011500001E000F80001800007E001F000018000DC
:10116000FFC001E000018000FF0003E000018000FB
:10117000FFC007C00001800003F00780000180006D
:1011800001F00F800001800000F01F0000018000CE
:1011900000F01E000001800201F03C00000180030D
:1011A00083F07C0000018003FFE0F8000001800371
:1011B000FFC0F000000180007E01F000000180000F
:1011C0000003E01F800180000003C03F8001800019
:1011D0000007C03F80018000000F807F80018000F9
:1011E000000F00F780018000001E00E780018000F2
:1011F000003E01E780018000003C03C780018000C1
:10120000007803878001800000F807878001800054
:1012100001F00F078001800001E00E0780018000CF
:1012200003E01E078001800007C01FFFF00180005F
:1012300007801FFFF00180000F801FFFF00180007A
:101240001F000007800180001E0000078001800051
:101250003C000007800180007C00000780018000C6
:101260007800000000018000000000000001800004
:10127000000000000001800000000000000180006C
:10128000000000000001800000000000000180005C
:10129000000000000001800000000000000180004C
:1012A000000000000001800000000000000180003C
:1012B000000000000001FFFFFFFFFFFFFFFF4040B5
:1012C000FFFFFFFFFFFFFFFF8000000000000001A5
:1012D000800000000000000180000000000000010C
:1012E00080000000000000018000000000000001FC
:1012F00080000000000000018000000000000001EC
:1013000080000000000000018000000000000001DB
:1013100080000000001E000180000000001E00018F
:1013200080001F00003C000180003F00007C0001A5
:101330008000FF0000F800018003FF0000F00001C2
:101340008003FF0001F0000180030F0003E00001B3
:1013500080000F0003C0000180000F0007C00001E3
:1013600080000F000F80000180000F000F000001BF
:1013700080000F001E00000180000F003E000001F1
:1013800080000F003C00000180000F007800000189
:1013900080000F00F800000180000F01F000000144
:1013A00080000F01E000000180000F03E000000159
:1013B00080000F07C000000180000F0780000001BF
:1013C0008000000F80FE00018000001F03FF00016D
:1013D0008000001E07FF80018000003C070FC00155
:1013E0008000007C0407C001800000F80003C001F9
:1013F000800000F00003C001800001F00007C00180
:10140000800003E00007C001800003C0000F8001DE
:10141000800007C0001F000180000F80003F000116
:1014200080000F00007E000180001E0000FC000113
:1014300080003E0001F0000180003C0003E000015C
:101440008000780007C000018000F80007FFE0017D
:101450008001F00007FFE0018001E00007FFE001EC
:101460008001C000000000018000000000000001B9
:10147000800000000000000180000000000000016A
:10148000800000000000000180000000000000015A
:10149000800000000000000180000000000000014A
:1014A000800000000000000180000000000000013A
:1014B0008000000000000001FFFFFFFFFFFFFFFFB3
:1014C0004040FFFFFFFFFFFFFFFF80000000000024
:1014D000000180000000000000018000000000000A
:1014E00000018000000000000001800000000000FA
:1014F00000018000000000000001800000000000EA
:10150000000180000000000E000180000000001EAD
:10151000000180000F00003E000180003F00007CC1
:1015200000018000FF00007800018003FF0000F848
:1015300000018003EF0001F0000180038F0001E053
:10154000000180000F0003E0000180000F0007C0D1
:10155000000180000F000780000180000F000F00D5
:10156000000180000F001F00000180000F003E00FE
:10157000000180000F003C00000180000F007C0093
:10158000000180000F00F800000180000F00F00053
:10159000000180000F01F000000180000F03E00057
:1015A000000180000F03C000000180000F078000D1
:1015B00000018000000F807C00018000000F00FE11
:1015C00000018000001E01FE00018000003E01FEBF
:1015D00000018000007C03DE000180000078079E8F
:1015E0000001800000F8071E0001800001F00F1EBE
:1015F0000001800001E01E1E0001800003E01C1EAF
:101600000001800007C03C1E000180000780781E9A
:10161000000180000F00783E000180001F007FFF66
:10162000C00180003E007FFFC00180003C007FFFC2
:10163000C00180007C00001E00018000F800001E38
:1016400000018000F000001E00018001F000001E7B
:1016500000018001E00000000001800000000000A7
:101660000001800000000000000180000000000078
:101670000001800000000000000180000000000068
:101680000001800000000000000180000000000058
:101690000001800000000000000180000000000048
:1016A0000001800000000000000180000000000038
:1016B00000018000000000000001FFFFFFFFFFFFAE
:1016C000FFFF4040FFFFFFFFFFFFFFFF8000000024
:1016D0000000000180000000000000018000000008
:1016E00000000001800000000000000180000000F8
:1016F00000000001800000000000000180000000E8
:1017000000000001800000000000000180000000D7
:1017100000000001800000000000000180000007C0
:10172000F00000018000001FF80000018000003F71
:10173000FC0000018000003C3E00000180000078B9
:101740001F000001800000780F0000018000007879
:101750000F000001800000780F0000018000007879
:101760000F000001800000781E0000018000003C96
:101770003E0000018000003FFC0000018000001FCF
:10178000F800000180000007F00000018000000068
:101790000000000180000000000000018000000047
:1017A0000000000180000000000000018000000037
:1017B0000000000180000000000000018000000027
:1017C0000000000180000000000000018000000017
:1017D0000000000180000000000000018000000007
:1017E00000000001800000000000000180000000F7
:1017F00000000001800000000000000180000000E7
:1018000000000001800000000000000180000000D6
:1018100000000001800000000000000180000000C6
:1018200000000001800000000000000180000000B6
:1018300000000001800000000000000180000000A6
:101840000000000180000000000000018000000096
:101850000000000180000000000000018000000086
:101860000000000180000000000000018000000076
:101870000000000180000000000000018000000066
:101880000000000180000000000000018000000056
:101890000000000180000000000000018000000046
:1018A0000000000180000000000000018000000036
:1018B000000000018000000000000001FFFFFFFFAA
:1018C000FFFFFFFF080B00020202000009040000F6
:1018D0000102020000052400100105240101010499
:1018E00024020605240600010705810310004009B3
:1018F000040100020A000000070502024000000780
:101900000583024000000403090412010002EF02F3
:1019100001404123368000010102030141726475D8
:10192000696E6F204C4C430041726475696E6F2084
:101930004C656F6E6172646F000706050401000854
:101940000A0B0C0D0900000000240027002A002DBE
:1019500000300000000000250028002B002E003180
:101960000004040404040304050202020204030246
:101970000202020606060606060404020202040427
:10198000040802011040804010204080408008027E
:1019900004018040201002011080102040402000EF
:1019A00000000200090F0000030401000C00000009
:1019B0000000000000000000000000000000000027
:1019C0000000000000002A2B28000000000000009A
:1019D00000000000000000000000000000002C9E3D
:1019E000B4A0A1A2A434A6A7A5AE362D3738271ED1
:1019F0001F20212223242526B333B62EB7B89F8477
:101A000085868788898A8B8C8D8E8F90919293940E
:101A100095969798999A9B9C9D2F3130A3AD35044C
:101A200005060708090A0B0C0D0E0F1011121314EE
:101A300015161718191A1B1C1DAFB1B0B5000501FA
:101A40000906A1018502050719E029E7150025010E
:101A50007501950881029501750881039506750841
:101A6000150025730507190029738100C000EC17C4
:101A700011241FBECFEFDAE0DEBFCDBF11E0A0E042
:101A8000B1E0E2E0FBE302C005900D92A837B10798
:101A9000D9F722E0A8E7B1E001C01D92AE32B2074B
:101AA000E1F71DE0C8E3DDE004C02197FE010E94DC
:101AB000651DC733D107C9F70E9484180C947F1D98
:101AC0000C940000CF93DF93FC0181819091FD0184
:101AD000482F490F5527551F483051059CF5A281C5
:101AE000B381109709F529EF31E0338322832081F8
:101AF0002093FB018093FC018091FE01820F808383
:101B00002091FF01A22FB09100028A2F821B89171A
:101B1000E8F481813D91C82FD0E0C45FDE4F388367
:101B20008F5F8183F2CFD90118962D913C9119973F
:101B300021153105C1F729EF31E019963C932E9319
:101B40001897D5CF80E0DF91CF91089581E0FBCF4A
:101B5000FC018091A801882311F13FB7F89482E03D
:101B60008093E9002091F200822F90E01816190668
:101B700014F481E090E0882339F0289844E64093FB
:101B8000A7014091F1004083222339F02091F20017
:101B9000211103C02BE62093E8003FBF08958FEF8B
:101BA0009FEF0895282F30E0F901E156F64E949109
:101BB000F901E058F64E84912F59364EF9012491DF
:101BC000222309F430C09923E9F091509F30D0F4DA
:101BD000E92FF0E0E251F24F0C94651D1C0E200E2F
:101BE000FD0D140E180E020E020E020E230E290E0B
:101BF0002D0E310E370E020E3B0E909180009F7716
:101C000090938000E22FF0E0EE0FFF1FED5AF64EAA
:101C1000A591B4919FB7F894EC91611132C0809571
:101C20008E238C939FBF0895909180009F7DE8CF75
:101C300090918000977FE4CF94B59F7794BDE2CFD9
:101C400094B59F7DFBCF909190009F7790939000EB
:101C5000D9CF909190009F7DF9CF90919000977F80
:101C6000F5CF9091C0009F779093C000CBCF90911B
:101C7000C0009F7DF9CF9091C200977F9093C200E2
:101C8000C1CF8E2BCECFCF93DF9390E0FC01E058F5
:101C9000F64E24918F59964EFC0184918823D1F001
:101CA00090E0880F991FFC01EB5BF64EA591B49173
:101CB000FC01ED5AF64EC591D49161110EC09FB74B
:101CC000F8948C91E22FE0958E238C932881E22367
:101CD000E8839FBFDF91CF9108958FB7F894EC917F
:101CE000E22BEC938FBFF6CF8251E82FF0E0E75C58
:101CF000F64EE49190917B008E2F880F880F8072B2
:101D00009F7D892B80937B00E770E064E0937C00EB
:101D100080917A00806480937A0080917A0086FDB9
:101D2000FCCF809178009091790008953FB7F894A6
:101D30008091A3019091A401A091A501B091A60169
:101D400026B5A89B05C02F3F19F00196A11DB11D16
:101D50003FBFBA2FA92F982F8827BC01CD01620F52
:101D6000711D811D911D42E0660F771F881F991F0D
:101D70004A95D1F708958F929F92AF92BF92CF92DA
:101D8000DF92EF92FF924B015C010E94960E6B0175
:101D90007C010E94960E6C197D098E099F09683E90
:101DA000734081059105A8F321E0821A9108A108EA
:101DB000B10888EEC80E83E0D81EE11CF11C811426
:101DC0009104A104B10429F7FF90EF90DF90CF9028
:101DD000BF90AF909F908F90089540918601509151
:101DE0008701209184013091850142175307B4F493
:101DF0009091E8009570E1F39091E80092FD19C090
:101E00008093F100809186019091870101968F73F4
:101E10009927892B19F48EEF8093E8008091860131
:101E2000909187010196909387018093860181E0CC
:101E3000089580E00895EF92FF920F931F93CF9340
:101E4000DF93F82E192FE62E042F81E0860F880FDE
:101E50000E94ED0E83E00E94ED0ECF2DD12FEC0EEF
:101E6000FD2EF11CCE15DF05B9F007FF13C0FE01F2
:101E700084910E94ED0E182F80E00E94ED0E8123C8
:101E800021968111EFCFDF91CF911F910F91FF909C
:101E9000EF9008958881EDCF81E0F5CFDF92EF924A
:101EA000FF920F931F93CF93DF93D82E8A01EB01FC
:101EB0007B01E40EF51ECE15DF0559F0D7FE12C0EA
:101EC000FE0184910E94ED0E21968111F4CF0FEF57
:101ED0001FEFC801DF91CF911F910F91FF90EF90FD
:101EE000DF9008958881EECF2FB7F89487708093A4
:101EF000E9009091E800892F807295FF04C09091CD
:101F0000F20080E4891B2FBF08957F928F929F92E9
:101F1000AF92BF92CF92DF92EF92FF920F931F93F7
:101F2000CF93DF93C82E8B017A018091A801811194
:101F300010C08FEF9FEFDF91CF911F910F91FF9016
:101F4000EF90DF90CF90BF90AF909F908F907F9059
:101F5000089580918A0180FF05C08091E000826031
:101F60008093E000CE2DDF2DD12C8AEFB82E8C2D62
:101F70008770982E8C2D8072882E8C2D8074782EF0
:101F80009AE3A92E209719F4DD2009F452C08C2D74
:101F90000E94740F81110AC0BA94BB2051F261E013
:101FA00070E080E090E00E94BB0EECCF8C171D0625
:101FB00011F00CF08C2F9FB7F8949092E9002091CB
:101FC000E80025FD02C09FBFDDCF282F30E0C21BF7
:101FD000D30B882029F08150A0F01092F100FBCFA4
:101FE000F801C7FC0AC0815050F041914093F100C4
:101FF000FACF44914093F10031968150D0F7020F0F
:10200000131FDD2021F0A092E800D12CDCCF8091BD
:10201000E80085FD07C0A092E800DD24D394209756
:1020200091F2F3CF209779F6772069F2A092E80039
:10203000CACF5D9884E680938901C7017CCF615047
:1020400030F02091F100FC0120830196F8CF289810
:1020500084E68093A701089580917C0181110DC0D1
:1020600082E08093780184E08093790110927B0173
:1020700010927A0181E080937C0188E791E00895D5
:10208000EF92FF921F93CF93DF931F92CDB7DEB7EE
:102090007C0180910A0281112AC011E01093FD0198
:1020A0001093FE0183E092E0909300028093FF0181
:1020B000109202021092010283E691E09093FA01DD
:1020C0008093F90110920502109204021092070207
:1020D00010920602109308021093090281EC80937B
:1020E00003020E942C100E94620D10930A0282E0EB
:1020F000898341E050E0BE016F5F7F4F8091FC011A
:102100000E94850F97FD08C08091FC0148E050E0D7
:10211000B70180640E94850F0F90DF91CF911F91CE
:10212000FF90EF9008950F931F93CF93DF931F922B
:10213000CDB7DEB782E0898342E450E064EC78E119
:1021400080E80E944E0F0E942C10DC0112960D9127
:102150001C910115110589F0D801ED91FC910280C7
:10216000F381E02DBE016F5F7F4FC801099597FD98
:1021700004C0F80100851185ECCF89810F90DF91B3
:10218000CF911F910F910895CF93DF93EC01809130
:102190000B01882331F083E00E94850F1816190681
:1021A00034F081E090E09B838A8380E090E0DF91CF
:1021B000CF910895CF93DF931F92CDB7DEB7698398
:1021C000DC01ED91FC910280F381E02D41E050E0D3
:1021D000BE016F5F7F4F09950F90DF91CF910895FA
:1021E00083E08093E9008091F200882319F08AE36C
:1021F0008093E800089583E00E94740F90E00895B2
:10220000CF93DF931F92CDB7DEB7FC018485958510
:1022100097FD08C02FEF3FEF358724870F90DF91A0
:10222000CF910895CE0101960E94A80D019719F44F
:10223000898190E0F3CF8FEF9FEFF0CF0F931F9343
:10224000CF93DF931F92CDB7DEB78C01FC0184855D
:10225000958597FF0BC0CE0101960E94A80D0197AE
:1022600071F4898190E0F80195878487F80184856D
:1022700095850F90DF91CF911F910F9108958FEF6A
:102280009FEFF1CFFC018485958597FD0BC09FB72B
:10229000F89482E08093E9008091F2009FBF90E083
:1022A000019608959FB7F89482E08093E9008091A9
:1022B000F2009FBF90E00895DC01FB0112962C9183
:1022C0001297848195812817190641F491818081A4
:1022D000813A31F49D7F81E0913009F080E00895EA
:1022E0008132E1F79B3029F482811F968C9381E043
:1022F00008959A3099F7828150968C93F8CFDC013B
:10230000FB0188E4808389E4818384E482831D96D1
:102310009C911D979F709F5B93831D968D919C91BF
:1023200024E0969587952A95E1F78F708F5B8483DB
:1023300085E00895EF92FF920F931F93CF93DF9361
:10234000FB012081213871F52381223259F5DC010E
:1023500012964C91248135814217130619F5EC0130
:102360000B851C85F12CE12C0115110589F0F80174
:10237000448155816281738180E80E944E0F8F3FB6
:10238000980749F0E80EF91ED8010D911C91ECCF89
:1023900081E08F87C701DF91CF911F910F91FF904F
:1023A000EF90089590E080E0F6CFCF93DF93CDB724
:1023B000DEB769970FB6F894DEBF0FBECDBFFC0144
:1023C000DB018C918F5F8C939E012D5F3F4F8DE0E1
:1023D000D9011D928A95E9F729E0298384E08A834F
:1023E00091E09D8383E08E832A8721E22B879C875F
:1023F0009D879F8722E2288B27E02B8B25E02C8B63
:102400008E8B20E430E0388F2F8B998F82818B83E5
:1024100095858685998B8A8B838180688D8B49E130
:1024200050E0BE016F5F7F4F80E00E944E0F6996C3
:102430000FB6F894DEBF0FBECDBFDF91CF910895E8
:10244000CF92DF92EF92FF920F931F93CF93DF9380
:102450006C01EB017B01E40EF51E10E000E0CE15EF
:10246000DF0581F069916D30D1F3D601ED91FC91DA
:102470000190F081E02DC6010995892B19F00F5FBD
:102480001F4FEDCFC801DF91CF911F910F91FF90AA
:10249000EF90DF90CF900895DC01683888F168589C
:1024A00016968C911697861721F117968C9117978F
:1024B0008617F9F018968C9118978617D1F019960F
:1024C0008C9119978617A9F01A968C911A978617EE
:1024D00081F01B968C911B97861759F0FD0136965B
:1024E00090E080E0219121114FC08A0F9B1FFC01D9
:1024F0006683CD0104960E94401081E090E008952B
:10250000862F90E067FF12C0FC01E058F10921E03E
:1025100030E001C0220FEA95EAF714968C911497E7
:10252000822B14968C93149760E0BACF1C96ED9191
:10253000FC911D97E80FF91F6491611109C081E0BA
:1025400090E013969C938E93129790E080E008950C
:10255000862F807C803C69F414968C91149780645B
:1025600014968C9314976F73623309F099CF64E6D5
:1025700097CF67FFF9CF14968C91149782601496C9
:102580008C9314976F77F0CF01968630910509F000
:10259000A9CFD5CFEF92FF921F93CF93DF93EC019A
:1025A000162F0E944C127C01E8E7E10F183890F4D6
:1025B000812F90E017FF2AC0FC01E058F10981E06B
:1025C00090E001C0880FEA95EAF780959C81892305
:1025D0008C83E0E0DE0186E0EE2341F016969C91CC
:1025E0001697E91303C016961C9216978150119600
:1025F0008111F2CFCE0104960E944010C7019927A5
:10260000DF91CF911F91FF90EF900895EC85FD85AC
:10261000E80FF91FE491EE2389F38E2F807C803C34
:1026200041F48C818F7B8C83EF73E23399F6E4E67F
:10263000D1CFE7FFFACF8C818D7F8C83EF77F5CFF9
:10264000089590E080E00895E82FEE0FFF0BEB5C1B
:10265000FE4F0190F081E02D3196E49185958595AE
:1026600020E58202C001112420E530E02E1B310953
:10267000E7FD339537FF02C02F5F3F4F3595279514
:10268000820F931F0895E82FEE0FFF0BEB5CFE4FB8
:102690000190F081E02DE491837020E5829FC001DC
:1026A000112420E530E02E1B3109E7FD339537FF7B
:1026B00002C02F5F3F4F35952795820F931F0895D6
:1026C0000F931F93CF93DF9361E089E00E94430E45
:1026D00061E085E10E94430E60E089E00E94D20D36
:1026E00061E085E10E94D20D60E084E10E94430E2A
:1026F00060E088E00E94430E84E10E94740E83E74C
:1027000090E00197F1F700E110E0D0E0C0E084E153
:102710000E94740EC80FD91F01501109C1F761E062
:1027200084E10E94430E61E084E10E94D20D61E0E9
:1027300088E00E94430ECE01D7FD0F9624E09595C8
:1027400087952A95E1F7DF91CF911F910F91089519
:102750000F931F93CF93DF9361E088E00E94430EB5
:1027600061E084E10E94430E60E088E00E94D20DA7
:1027700061E084E10E94D20D60E085E10E94430E99
:1027800060E089E00E94430E85E10E94740E83E7B9
:1027900090E00197F1F700E110E0D0E0C0E085E1C2
:1027A0000E94740EC80FD91F01501109C1F761E0D2
:1027B00085E10E94430E61E085E10E94D20D61E057
:1027C00089E00E94430ECE01D7FD0F9624E0959537
:1027D00087952A95E1F7DF91CF911F910F91089589
:1027E00095B1282F30E0A90164E0440F551F6A9588
:1027F000E1F740739F7C492B45B998B1B901660F49
:10280000771F9F7B462F4074942B98B99BB1A901E9
:10281000559547959C768071892B942F9270892BC2
:1028200023FB222720F9282B6078262B2BB98EB189
:102830008F7B4074842B8EB98E988E9A08958D98D4
:1028400095B1282F30E0A90164E0440F551F6A9527
:10285000E1F740739F7C492B45B998B1B901660FE8
:10286000771F9F7B462F4074942B98B99BB1A90189
:10287000559547959C768071892B942F9270892B62
:1028800023FB222720F9282B6078262B2BB98EB129
:102890008F7B4074842B8EB98E988E9A8D9A089572
:1028A000CF92DF92EF92FF920F931F93CF93DF931C
:1028B0006C017B018A01E901481759072CF4982F14
:1028C0008D2D6A01092F182FCE15DF052CF49E2DB2
:1028D0008F2D7E01C92FD82F8C9882E00E941F1463
:1028E0008D2D0E94F01383E00E941F148C2D0E94F6
:1028F000F01384E00E941F14812F0E94F01385E0E2
:102900000E941F14802F0E94F01386E00E941F1463
:102910008F2D0E94F01387E00E941F148E2D0E94BD
:10292000F01388E00E941F148D2F0E94F01389E09D
:102930000E941F148C2F0E94F01382E20E941F1429
:102940008C9ADF91CF911F910F91FF90EF90DF90C4
:10295000CF9008958F929F92AF92BF92CF92DF92C5
:10296000EF92FF920F931F93CF93DF937A01A22EE2
:10297000932EFA01D4913196C4909B012C0D311DF8
:1029800021503109AC014D0F511D415051090E9498
:1029900050148C98DC9D60011124D0E0C0E0CC166E
:1029A000DD0611F1CE0187709927892B61F4FE01B4
:1029B00083E0F595E7958A95E1F73296EE0DFF1DD8
:1029C000B49090E8892E8B2D882149F0892D0E94A2
:1029D000F0138A2D0E94F01386942196E0CF812F68
:1029E0000E94F013802FF6CFDF91CF911F910F91AE
:1029F000FF90EF90DF90CF90BF90AF909F908F901F
:102A000008951F920F920FB60F9211242F933F93A8
:102A10008F939F93AF93BF9380919F019091A0015B
:102A2000A091A101B091A20130919E0123E0230F5A
:102A30002D3758F50196A11DB11D20939E0180935D
:102A40009F019093A001A093A101B093A201809156
:102A5000A3019091A401A091A501B091A6010196B6
:102A6000A11DB11D8093A3019093A401A093A50182
:102A7000B093A601BF91AF919F918F913F912F91FC
:102A80000F900FBE0F901F90189526E8230F029607
:102A9000A11DB11DD2CF1F920F920FB60F9211241C
:102AA0008F939F938091E1009091E100937F9093A9
:102AB000E10083FF0FC01092E90091E09093EB00DA
:102AC0001092EC0092E39093ED001092A80198E030
:102AD0009093F00082FF22C093E09093E9009091E0
:102AE000F200992319F09AE39093E80090918901FC
:102AF000992341F09091890191509093890191110E
:102B000001C05D9A9091A701992341F09091A7018E
:102B100091509093A701911101C0289A84FF18C089
:102B20008091E2008E7E81608093E2008091E100DE
:102B30008F7E8093E10080918A018E7E80618093F8
:102B40008A019F918F910F900FBE0F901F90189543
:102B500080FFF7CF8091E2008E7E80618093E2005B
:102B60008091E1008E7E8093E10080918A018E7ECB
:102B70008160E5CF1F920F920FB60F921124CF9272
:102B8000DF92EF92FF920F931F932F933F934F93F8
:102B90005F936F937F938F939F93AF93BF93EF93C5
:102BA000FF93CF93DF93CDB7DEB76C97DEBFCDBF7A
:102BB0001092E9008091E80083FF25C068E0CE0113
:102BC00045960E941F1082EF8093E8008D8987FF51
:102BD00039C09091E80090FFFCCF982F907609F0D3
:102BE00034C19E894F89588D2F89F88C911131C03D
:102BF000803861F580918B018093F1001092F10093
:102C00008EEF8093E8006C960FB6F894DEBF0FBE8F
:102C1000CDBFDF91CF91FF91EF91BF91AF919F9188
:102C20008F917F916F915F914F913F912F911F9164
:102C30000F91FF90EF90DF90CF900F900FBE0F900D
:102C40001F9018959EEF9093E800C7CF1092F10067
:102C5000D5CF913059F48111D3CF4130510581F650
:102C600080918B018D7F80938B01CACF933049F483
:102C70008111C6CF4130510519F680918B018260D8
:102C8000F2CF953041F48091E80080FFFCCF2068BE
:102C90002093E300B5CF963009F0A9C00B8D1C8DB1
:102CA00022E01092E9001092870110928601F21240
:102CB0002EC010928501109284010E9493101F82F1
:102CC00099E09983FA8291E09E8390EA98879AEF3F
:102CD00099872091860130918701275F3F4F3C8380
:102CE0002B838D831092E900109287011092860148
:102CF000109385010093840149E050E0BE016F5FAD
:102D00007F4F80E00E944E0F0E94931079CF109366
:102D10008501009384010E942C10DC0112960D9114
:102D20001C910115110509F451C1D801ED91FC91D7
:102D30000480F581E02DBE016B5E7F4FC8010995CF
:102D4000009709F03EC1F80100851185EACFF3E054
:102D5000FF120EC08F89882309F440C0823061F4CD
:102D600040E860E188E299E10E941B0F811148CFA1
:102D700081E28093EB0047CF813029F440E86BE09B
:102D80008CE199E1F1CF833099F70E942C10DC019E
:102D90001296ED90FC908E010F5F1F4F6801E114B9
:102DA000F10479F0D701ED91FC910680F781E02DD7
:102DB000B801C7010995080F111DF701E084F184DE
:102DC000EECFD8011C92F60101900020E9F731976F
:102DD000BF016C197D0940E0C601C6CF66E079E10C
:102DE000FB01449150E080E80E944E0F09CF9730DC
:102DF00009F4BECF983021F481E08093F10000CF38
:102E0000993009F0FDCE837009F0B2CFEDE0F1E02A
:102E100081E031E096E32191222371F08093E90073
:102E20003093EB00DF0111972C912093EC009093ED
:102E3000ED008F5F873079F78EE78093EA0010927C
:102E4000EA008F898093A801DBCE8B8D9C8D109238
:102E5000E90010928701109286019093850180937A
:102E60008401898D811192C08E899D89913A49F49E
:102E7000813209F07DCF47E050E064E071E080E00E
:102E8000B3CF913209F074CF833269F48F89988D72
:102E9000B0E0A0E08093000190930101A0930201B3
:102EA000B0930301ADCE803269F48091E80082FFD7
:102EB000FCCF67E084E091E00E941F108BEF8093CD
:102EC000E8009ECE823209F09BCE8F8980930B0161
:102ED000EEEFFFE7859194918B3F9C4D51F1E0E03F
:102EE000F8E08091040190910501A0910601B09154
:102EF0000701803B9440A105B105F1F480910B01DD
:102F000080FD1AC0EE3F8AE0F80789F587E797E76A
:102F100091838083809160008093880188E19BE0A9
:102F20000FB6F894A895809360000FBE9093600050
:102F300067CEEEEFFAE0D5CF808191818737974752
:102F400009F05ECEA8958091600088618093600052
:102F50008091880180936000EE3F2AE0F20789F0BB
:102F60008091FE0A9091FF0A9183808349CE8081EF
:102F700091818737980751F29093FF0A8093FE0A58
:102F8000C5CF1092FF0A1092FE0A3ACE0E942C1072
:102F9000DC0112960D911C910115110509F4E8CE82
:102FA000D801ED91FC910190F081E02DBE016B5EA6
:102FB0007F4FC8010995811123CEF8010085118545
:102FC000EBCF181619060CF41BCED2CEF1E0FF128F
:102FD000BECE6AE079E104CFCF931092AC0110929B
:102FE000AB0188EE93E0A0E0B0E08093AD01909358
:102FF000AE01A093AF01B093B00181E591E0909351
:10300000AA018093A9018FEF9FEF9093B60180935F
:10301000B50110922302109222028FE691E0909364
:1030200021028093200280911802811113C0109216
:103030001302109212028EE39AE19093150280938C
:1030400014028FE290E0909317028093160281E0C1
:103050008093180280910A0281112AC0C1E0C093B6
:10306000FD01C093FE0183E092E090930002809303
:10307000FF01109202021092010283E691E0909308
:10308000FA018093F9011092050210920402109245
:10309000070210920602C0930802C093090281EC55
:1030A000809303020E942C100E94620DC0930A02BA
:1030B000E0910402F09105023097E9F482E192E098
:1030C000909305028093040280910602909107027A
:1030D0002091160230911702820F931F90930702DE
:1030E000809306028EEB99E190932D0280932C023F
:1030F000CF910895FC01808191810097D9F782E1F9
:1031000092E091838083E0CFCF93DF93CDB7DEB79A
:1031100029970FB6F894DEBF0FBECDBF789484B563
:10312000826084BD84B5816084BD85B5826085BDC3
:1031300085B5816085BD80916E00816080936E0051
:103140001092810080918100826080938100809143
:1031500081008160809381008091800081608093F4
:103160008000809191008260809391008091910015
:1031700081608093910080919000816080939000A5
:103180008091C10084608093C1008091C100826001
:103190008093C1008091C10081608093C1008091C3
:1031A000C30081608093C3008091C00082608093DF
:1031B000C0008091C20081608093C20080917A003B
:1031C000846080937A0080917A00826080937A0094
:1031D00080917A00816080937A0080917A00806883
:1031E00080937A001092A80110928B0110928A01AC
:1031F0008091D70081608093D70080EA8093D800C7
:1032000089B5806189BD89B5826089BD09B400FE38
:10321000FDCF61E070E080E090E00E94BB0E809105
:10322000D8008F7C80618093D8008091E000807FFF
:103230008093E0008091E1008E7E8093E1008DE03C
:103240008093E200559A209A8FEF9FEF9093B601FA
:103250008093B5018EEB99E190932D0280932C021F
:1032600020EF30E030938D0120938C0100E411E0D9
:1032700010938F0100938E01EE24E394F12CF092D1
:103280009101E092900184B1806384B93E9A8AB141
:1032900083698AB96E9A819A849A859A869A879A5E
:1032A000899A8C9A8D9A8E9A8F9A62E370E080E068
:1032B00090E00E94BB0E899866E970E080E090E0A3
:1032C0000E94BB0E899A66E970E080E090E00E945F
:1032D000BB0E8C988AEE0E941F1480E00E94F013AF
:1032E00080E20E94F0138CEE0E941F148CE00E947A
:1032F000F01384EC0E94F01388EE0E941F1488E300
:103300000E94F01389EE0E941F1480E10E94F013C6
:1033100081EF0E941F1481E00E94F01382EF0E944F
:103320001F1480E10E94F01380E40E941F1481E0CA
:103330000E94F01380E00E94F01380E00E94F013DE
:1033400080E10E94F0138EE00E94F01384E20E945C
:10335000F01384E00E94F01380E50E94F01382E0F5
:103360000E94F01383E10E94F01389E10E94F013A0
:1033700089E10E94F01386E10E94F01380E50E942B
:103380001F148BE10E94F01381E30E94F0138FE27F
:103390000E94F0138FE30E94F0138FE30E94F0135A
:1033A0008EE30E94F0138FE20E94F0138BE70E94DD
:1033B000F01389E00E94F01386E00E94F01386E08B
:1033C0000E94F0138CE00E94F0138DE10E94F01334
:1033D0008CEC0E94F0138BE10E941F148BE10E9481
:1033E000F0138AE10E941F1481E00E94F01384E22E
:1033F0000E941F148FE20E94F01385E20E941F14A6
:1034000087E50E94F01383E20E941F1488E80E945F
:10341000F01388E10E941F1484E30E94F01389E1F5
:103420000E941F1481E00E94F01381E00E941F148B
:1034300080E00E94F0138FE10E941F1488E80E9430
:10344000F01365E070E080E090E00E94BB0E8FE139
:103450000E941F1480E80E94F01363E070E080E097
:1034600090E00E94BB0E8FE10E941F1480E90E9431
:10347000F01365E070E080E090E00E94BB0E8FE109
:103480000E941F1480ED0E94F01365E070E080E060
:1034900090E00E94BB0E87E10E941F1485E00E940D
:1034A000F01386E30E941F1480E00E94F01388E26C
:1034B0000E941F1488E30E94F01368E270E080E02D
:1034C00090E00E94BB0E88E20E941F148FE30E94CE
:1034D000F01386E10E941F1488E40E94F01382E238
:1034E0000E941F148C9A80EF90E090938D0180933E
:1034F0008C0110938F0100938E01F0929101E09264
:1035000090018C9886E10E941F1488E20E94F013BB
:1035100010938D0100938C01E0EFF0E0F0938F01A8
:10352000E0938E0182E090E090939101809390016E
:103530008C9A20918E0130918F0121503109409158
:103540008C0150918D014150510970E060E090E094
:1035500080E00E9450148C9820E036E93B832A8357
:1035600080E00E94F01380E00E94F01380E00E944F
:10357000F01380E00E94F0138A819B8101979B8366
:103580008A83892B69F78C9A45E3E42E41E0F42E77
:103590001982F701A190B1907F0189810E942413C3
:1035A0006C0189810E94431310E000E02FEF37E0A7
:1035B000A501B6010E94AA14F981FF5FF983FC30CE
:1035C00041F722E1222E2DEF322E44244A94542C2E
:1035D0003EEE832E32E0932EA12CB12C009190016F
:1035E00010919101E0908C01F0908D010230110555
:1035F00009F47DC0D4F40130110509F441C02FEF66
:103600003FEF39872887E0908E01F0908F010230DC
:10361000110509F490C00CF0BEC10130110509F488
:1036200053C066246A94762C9BC00330110509F4BC
:1036300081C10430110519F70E946013B701615070
:103640007109092E000CAA0BBB0B9C01AD01285C73
:10365000310941095109DB010E94181DA50194019E
:103660000E94EE1C398728872E153F0564F2E090F2
:103670008E01F0908F01EFEFFFEFF987E88792C19D
:103680000E94A813B70161507109092E000CAA0B02
:10369000BB0B9C01AD012859334041095109DB01A5
:1036A0000E94181DA20191010E94EE1C39872887F3
:1036B0002E153F050CF4A7CFE0908E01F0908F01FE
:1036C000EFEFFFEFF987E8870E946013092E000CE7
:1036D000AA0BBB0B9C01AD01265B3340410951098C
:1036E000D70111970E94181DA201910136C00E94B6
:1036F0006013B70161507109092E000CAA0BBB0BB6
:103700009C01AD01265B334041095109DB010E9458
:10371000181DA20191010E94EE1C398728872E15E1
:103720003F050CF470CFE0908E01F0908F012FEFE9
:103730003FEF398728870E94A813092E000CAA0B97
:10374000BB0B9C01AD012A5A310941095109D7012E
:1037500011970E94181DA50194010E94EE1C3901C9
:103760006E147F041CF066246A94762C82E991E042
:103770009D838C83EDE1F1E0FB83EA8325E331E077
:103780003F832E831982EE81FF81E190F190FF83C8
:10379000EE83F701C4903196D49089810E9443133F
:1037A0008C0189810E9424132885398520173107CF
:1037B00094F00C0D111DC7FC1A95021713075CF04D
:1037C0006816790644F08D0D911DD7FC9A9521E07D
:1037D000861597050CF420E0EC81FD818191FD8335
:1037E000EC83821709F492C03197208389812223C8
:1037F00009F4E5C00E9424136C0189810E944313DF
:103800000FEF17E030E020E0A701B6010E94AA14F4
:10381000EA81FB810081118162E880E292E00E94EE
:103820004C1261E070E080E090E00E94BB0EC801A5
:1038300068EE73E00E94511DCB016AE070E00E94C7
:10384000511DFC01ED5EFE4F608180E292E00E941E
:10385000CA1261E070E080E090E00E94BB0EC801F7
:1038600064E670E00E94511DCB016AE070E00E94A6
:10387000511DFC01ED5EFE4F608180E292E00E94EE
:10388000CA1261E070E080E090E00E94BB0EC801C7
:103890006AE070E00E94511D8C01CB016AE070E08B
:1038A0000E94511DFC01ED5EFE4F608180E292E0BE
:1038B0000E94CA1261E070E080E090E00E94BB0EBE
:1038C000F801ED5EFE4F608180E292E00E94CA1234
:1038D00061E070E080E090E00E94BB0E1092260252
:1038E00010922702109228021092290210922A02A6
:1038F00010922B021092240284E292E00E94401067
:1039000062E370E080E090E00E94BB0E2A813B8180
:103910002E5F3F4F3B832A8339813F5F39833C30A1
:1039200009F031CF80E090E0892B09F457CE0E9456
:10393000000054CE0E94A813B70161507109092EEE
:10394000000CAA0BBB0B9C01AD012A5A310941099D
:103950005109DB010E94181DA50194010E94EE1C73
:10396000398728872E153F050CF44DCEE0908E0147
:10397000F0908F018FEF9FEF998788870E946013E7
:10398000092E000CAA0BBB0B9C01AD01285C310970
:1039900041095109DCCE0330110581F304301105D2
:1039A00009F03FCE0E94A813092E000CAA0BBB0BF6
:1039B0009C01AD01285933404109510991CE0E9423
:1039C00024136C0189810E94431310E000E02FEF63
:1039D00037E0A701B6010E94AA1498CF052E97FBE5
:1039E0001EF400940E94051D57FD07D00E94201D63
:1039F00007FC03D04EF40C94051D5095409530956E
:103A000021953F4F4F4F5F4F08959095809570954A
:103A100061957F4F8F4F9F4F08950E94421DA59F34
:103A2000900DB49F900DA49F800D911D11240895B9
:103A3000B7FF0C940D1D0E940D1D821B930B089562
:103A4000A1E21A2EAA1BBB1BFD010DC0AA1FBB1FA2
:103A5000EE1FFF1FA217B307E407F50720F0A21B14
:103A6000B30BE40BF50B661F771F881F991F1A9481
:103A700069F760957095809590959B01AC01BD01AB
:103A8000CF010895A29FB001B39FC001A39F700D05
:103A9000811D1124911DB29F700D811D1124911D56
:103AA000089597FB072E16F4009407D077FD09D0F0
:103AB0000E946B1D07FC05D03EF4909581959F4FA9
:103AC0000895709561957F4F0895EE0FFF1F059043
:103AD000F491E02D0994AA1BBB1B51E107C0AA1F5A
:103AE000BB1FA617B70710F0A61BB70B881F991F9F
:103AF0005A95A9F780959095BC01CD010895F89449
:023B0000FFCFF5
:103B0200FFFFFFFF00E100000000000000C1808114
:103B1200000000EAE1E2E3E4E5E6E7E8E9B000BC40
:103B220000BD00BE00A9008000A300A500B100F7FF
:103B32000085008600C216C014BE12BC10BA0EB8B0
:103B42000CB60AB408B206B004AE02AC0000000023
:103B520000DA10C410FB10F010421100111E110007
:103B62000000005C11D5119A117F1100000000CAFB
:083B72001220122113201300A0
:00000001FF
